{
  "_format": "hh-sol-artifact-1",
  "contractName": "BalanceReader",
  "sourceName": "contracts/BalanceReader.sol",
  "abi": [
    {
      "inputs": [
        {
          "internalType": "address",
          "name": "_user",
          "type": "address"
        },
        {
          "internalType": "address[]",
          "name": "_tokens",
          "type": "address[]"
        }
      ],
      "name": "getBalances",
      "outputs": [
        {
          "components": [
            {
              "internalType": "address",
              "name": "token",
              "type": "address"
            },
            {
              "internalType": "uint256",
              "name": "balance",
              "type": "uint256"
            }
          ],
          "internalType": "struct BalanceReader.TokenBalance[]",
          "name": "",
          "type": "tuple[]"
        }
      ],
      "stateMutability": "view",
      "type": "function"
    }
  ],
  "bytecode": "0x608060405234801561001057600080fd5b506106bf806100206000396000f3fe608060405234801561001057600080fd5b506004361061002b5760003560e01c80636a385ae914610030575b600080fd5b61004a600480360381019061004591906103dc565b610060565b604051610057919061053e565b60405180910390f35b60606000825167ffffffffffffffff81111561007f5761007e610299565b5b6040519080825280602002602001820160405280156100b857816020015b6100a56101e1565b81526020019060019003908161009d5790505b50905060005b83518110156101d65760008482815181106100dc576100db610560565b5b60200260200101519050604051806040016040528086848151811061010457610103610560565b5b602002602001015173ffffffffffffffffffffffffffffffffffffffff1681526020018273ffffffffffffffffffffffffffffffffffffffff166370a08231896040518263ffffffff1660e01b8152600401610160919061059e565b602060405180830381865afa15801561017d573d6000803e3d6000fd5b505050506040513d601f19601f820116820180604052508101906101a191906105e5565b8152508383815181106101b7576101b6610560565b5b60200260200101819052505080806101ce90610641565b9150506100be565b508091505092915050565b6040518060400160405280600073ffffffffffffffffffffffffffffffffffffffff168152602001600081525090565b6000604051905090565b600080fd5b600080fd5b600073ffffffffffffffffffffffffffffffffffffffff82169050919050565b600061025082610225565b9050919050565b61026081610245565b811461026b57600080fd5b50565b60008135905061027d81610257565b92915050565b600080fd5b6000601f19601f8301169050919050565b7f4e487b7100000000000000000000000000000000000000000000000000000000600052604160045260246000fd5b6102d182610288565b810181811067ffffffffffffffff821117156102f0576102ef610299565b5b80604052505050565b6000610303610211565b905061030f82826102c8565b919050565b600067ffffffffffffffff82111561032f5761032e610299565b5b602082029050602081019050919050565b600080fd5b600061035861035384610314565b6102f9565b9050808382526020820190506020840283018581111561037b5761037a610340565b5b835b818110156103a45780610390888261026e565b84526020840193505060208101905061037d565b5050509392505050565b600082601f8301126103c3576103c2610283565b5b81356103d3848260208601610345565b91505092915050565b600080604083850312156103f3576103f261021b565b5b60006104018582860161026e565b925050602083013567ffffffffffffffff81111561042257610421610220565b5b61042e858286016103ae565b9150509250929050565b600081519050919050565b600082825260208201905092915050565b6000819050602082019050919050565b61046d81610245565b82525050565b6000819050919050565b61048681610473565b82525050565b6040820160008201516104a26000850182610464565b5060208201516104b5602085018261047d565b50505050565b60006104c7838361048c565b60408301905092915050565b6000602082019050919050565b60006104eb82610438565b6104f58185610443565b935061050083610454565b8060005b8381101561053157815161051888826104bb565b9750610523836104d3565b925050600181019050610504565b5085935050505092915050565b6000602082019050818103600083015261055881846104e0565b905092915050565b7f4e487b7100000000000000000000000000000000000000000000000000000000600052603260045260246000fd5b61059881610245565b82525050565b60006020820190506105b3600083018461058f565b92915050565b6105c281610473565b81146105cd57600080fd5b50565b6000815190506105df816105b9565b92915050565b6000602082840312156105fb576105fa61021b565b5b6000610609848285016105d0565b91505092915050565b7f4e487b7100000000000000000000000000000000000000000000000000000000600052601160045260246000fd5b600061064c82610473565b91507fffffffffffffffffffffffffffffffffffffffffffffffffffffffffffffffff820361067e5761067d610612565b5b60018201905091905056fea2646970667358221220904e02f1e2ea0cd1f1925ba7b027eeb96799ddc743d7e542987ad4dc159c220e64736f6c63430008130033",
  "linkReferences": {},
  "deployedLinkReferences": {}
}